:020000040000FA
:100000000C9462000C948A000C948A000C948A0070
:100010000C948A000C948A000C948A000C948A0038
:100020000C948A000C948A000C948A000C948A0028
:100030000C948A000C948A000C948A000C948A0018
:100040000C94FF020C948A000C946F030C944903E7
:100050000C948A000C948A000C948A000C948A00F8
:100060000C948A000C948A0008000000BE92244977
:10007000123EABAAAA2ABECDCCCC4C3E00000080DA
:10008000BEABAAAAAA3E00000000BF000000803F4D
:100090000000000000084178D3BB4387D1133D190D
:1000A0000E3CC3BD4282AD2B3E68EC8276BED98F3A
:1000B000E1A93E4C80EFFFBE01C4FF7F3F0000007E
:1000C00000007D0511241FBECFEFD8E0DEBFCDBFFD
:1000D00011E0A0E0B1E0E4EAF1E102C005900D9288
:1000E000A83BB107D9F722E0A8EBB1E001C01D920F
:1000F000AE35B207E1F710E0C2E6D0E004C02197C8
:10010000FE010E94CA08C136D107C9F70E94A103A7
:100110000C94D0080C9400008E50806480937C0076
:1001200080917A00806480937A0080917A0086FDC5
:10013000FCCF809178009091790008953FB7F894B2
:100140008091BD019091BE01A091BF01B091C0010D
:1001500026B5A89B05C02F3F19F00196A11DB11D22
:100160003FBFBA2FA92F982F8827BC01CD01620F5E
:10017000711D811D911D42E0660F771F881F991F19
:100180004A95D1F70895AF92BF92CF92DF92EF9246
:10019000FF920F931F93CF93DF936C017B018B0131
:1001A000040F151FEB015E01AE18BF08C017D10781
:1001B00059F06991D601ED91FC910190F081E02D0B
:1001C000C6010995892B79F7C501DF91CF911F9160
:1001D0000F91FF90EF90DF90CF90BF90AF90089578
:1001E000FC01538D448D252F30E0842F90E0821B3D
:1001F000930B541710F0CF96089501970895FC01C2
:10020000918D828D981761F0A28DAE0FBF2FB11D19
:100210005D968C91928D9F5F9F73928F90E0089571
:100220008FEF9FEF0895FC01918D828D981731F02B
:10023000828DE80FF11D858D90E008958FEF9FEF7F
:100240000895FC01918D228D892F90E0805C9F4F55
:10025000821B91098F739927089581EC91E00E9488
:10026000210121E0892B09F420E0822F089580E00C
:1002700090E0892B29F00E942D0181110C9400003F
:100280000895FC01A48DA80FB92FB11DA35ABF4F2B
:100290002C91848D90E001968F739927848FA68985
:1002A000B7892C93A089B1898C91837080648C93D9
:1002B000938D848D981306C00288F389E02D808188
:1002C0008F7D80830895EF92FF920F931F93CF93BA
:1002D000DF93EC0181E0888F9B8D8C8D98131AC081
:1002E000E889F989808185FF15C09FB7F894EE8968
:1002F000FF896083E889F9898081837080648083C5
:100300009FBF81E090E0DF91CF911F910F91FF900F
:10031000EF900895F62E0B8D10E00F5F1F4F0F73B7
:100320001127E02E8C8D8E110CC00FB607FCFACF72
:10033000E889F989808185FFF5CFCE010E944101CE
:10034000F1CFEB8DEC0FFD2FF11DE35AFF4FF08243
:100350009FB7F8940B8FEA89FB8980818062CFCFA9
:10036000CF93DF93EC01888D8823B9F0AA89BB89EC
:10037000E889F9898C9185FD03C0808186FD0DC0D7
:100380000FB607FCF7CF8C9185FFF2CF808185FFF8
:10039000EDCFCE010E944101E9CFDF91CF910895C9
:1003A000FC0101900020E9F73197AF01481B590B80
:1003B000BC0181EC91E00C94C3008F929F92AF92AC
:1003C000BF920F931F93CF93DF93CDB7DEB7A19763
:1003D0000FB6F894DEBF0FBECDBF19A2423008F4AD
:1003E0004AE08E010F5D1F4F842E912CB12CA12C61
:1003F000A50194010E94C905E62FB901CA01EA309E
:10040000F4F4E05DD801EE938D01232B242B252BF2
:1004100079F790E080E0109719F0CD010E94D001AB
:10042000A1960FB6F894DEBF0FBECDBFDF91CF917E
:100430001F910F91BF90AF909F908F900895E95CAE
:10044000E1CF0C94D0014F925F926F927F928F9286
:100450009F92AF92BF92CF92DF92EF92FF920F9353
:100460001F93CF936B017C01742EAC019B010E9402
:100470008108882399F082E191E0CF911F910F913B
:10048000FF90EF90DF90CF90BF90AF909F908F90B4
:100490007F906F905F904F900C94D0014601570170
:1004A000E894B7F82FEF3FEF4FE75FE7C501B401DE
:1004B0000E94810881110DC02FEF3FEF4FE75FE7EA
:1004C000C501B4010E94670618161CF486E191E08C
:1004D000D4CF2FEF3FEF4FE75FE4C701B6010E9493
:1004E000BF0718161CF48AE191E0C7CF2FEF3FEF4A
:1004F0004FE75FECC701B6010E94670687FDF3CFA7
:1005000020E030E0A901C701B6010E94670610E0B3
:1005100000E087FF0AC06DE281EC91E00E94630178
:100520008C01F7FAF094F7F8F094C0E060E070E026
:1005300080E09FE37C1641F020E030E040E251E4AF
:100540000E946C06CF5FF6CFA70196010E94FB05C3
:100550002B013C010E94DE064B015C014AE00E9437
:10056000DD017C01E00EF11ECC23C1F1C501B40117
:100570000E940D079B01AC01C301B2010E94FA0564
:100580004B015C016EE281EC91E00E946301E80E98
:10059000F91EC15018F120E030E040E251E4C501FD
:1005A000B4010E9414082B013C010E94DE064B019D
:1005B000B12CA12C4AE0C501B4010E94DD01E80E76
:1005C000F91EC501B4010E940D079B01AC01C301D6
:1005D000B2010E94FA054B015C01DBCFC701CF914C
:1005E0001F910F91FF90EF90DF90CF90BF90AF9051
:1005F0009F908F907F906F905F904F9008951F9283
:100600000F920FB60F9211242F933F938F939F93C6
:10061000AF93BF938091B9019091BA01A091BB01B2
:10062000B091BC013091B80123E0230F2D3758F56C
:100630000196A11DB11D2093B8018093B90190933B
:10064000BA01A093BB01B093BC018091BD01909110
:10065000BE01A091BF01B091C0010196A11DB11DC5
:100660008093BD019093BE01A093BF01B093C001E0
:10067000BF91AF919F918F913F912F910F900FBE9E
:100680000F901F90189526E8230F0296A11DB11D0B
:10069000D2CF1F920F920FB60F9211242F933F9338
:1006A0004F935F936F937F938F939F93AF93BF937A
:1006B000EF93FF9381EC91E00E944101FF91EF9154
:1006C000BF91AF919F918F917F916F915F914F916A
:1006D0003F912F910F900FBE0F901F9018951F9272
:1006E0000F920FB60F9211242F938F939F93EF9336
:1006F000FF93E091D101F091D2018081E091D70187
:10070000F091D80182FD1BC090818091DA018F5F4A
:100710008F732091DB01821741F0E091DA01F0E064
:10072000EF53FE4F958F8093DA01FF91EF919F91E8
:100730008F912F910F900FBE0F901F901895808171
:10074000F4CFCF93DF93CDB7DEB728970FB6F894E9
:10075000DEBF0FBECDBF789484B5826084BD84B502
:10076000816084BD85B5826085BD85B5816085BDAC
:1007700080916E00816080936E0010928100809164
:1007800081008260809381008091810081608093EC
:100790008100809180008160809380008091B10011
:1007A00084608093B1008091B00081608093B0003C
:1007B00080917A00846080937A0080917A008260D0
:1007C00080937A0080917A00816080937A00809192
:1007D0007A00806880937A001092C100E091D10184
:1007E000F091D20182E08083E091CD01F091CE01C1
:1007F0001082E091CF01F091D0018FEC80831092B4
:10080000D901E091D501F091D60186E08083E09195
:10081000D301F091D401808180618083E091D30184
:10082000F091D401808188608083E091D301F091C0
:10083000D401808180688083E091D301F091D4015C
:1008400080818F7D808344244A9493E0592E612CCB
:10085000712C8EE00E948C0098878F838FE00E941D
:100860008C006C0180E10E948C008C0181E10E946F
:100870008C001C0182E10E948C009A83898383E1B1
:100880000E948C007C01B601DD0C880B990B0E9444
:100890000F079B01AC0160E070EC8FE794E40E94CD
:1008A0006C0620E030E040E85FE30E94FA059B011F
:1008B000AC0160E070E48CE196E40E946C0620E0FC
:1008C00030E44CE156E40E946C060E94CC0720E024
:1008D00030EE46E755E40E946C066B837C838D8383
:1008E0009E839701ACE9BFEF0E94BB08A301920170
:1008F0000E94AA0549015A017A01690124E6C20E43
:10090000D11CE11CF11C8FE391E00E9421028EE1D9
:1009100091E00E9421022FB7F8946091B901709183
:10092000BA018091BB019091BC012FBF4AE00E94A7
:10093000DD018BE291E00E94210288E391E00E94B8
:10094000210281E491E00E94210224E630E0AF819F
:10095000B8850E94C308A30192010E94AA05CA019A
:10096000B9010E940F0741E00E9423028DE491E04B
:100970000E9421022FE03FEC4BE55BE36B817C8121
:100980008D819E810E94FB059B01AC0160E070E0BF
:1009900080E89FE30E946C0623E333E948E853E4D0
:1009A0000E94FA0541E00E9423028DE591E00E9439
:1009B000210280E691E00E9421028EE691E00E94F1
:1009C000210224E630E0D8010E94C308A30192016D
:1009D0000E94AA05CA01B9010E940F0741E00E94C6
:1009E00023028AE791E00E94210224E630E0D1014F
:1009F0000E94C308A30192010E94AA05CA01B9017D
:100A00000E940F0741E00E94230289E891E00E94C2
:100A1000210224E630E0A981BA810E94C308A30123
:100A200092010E94AA05CA01B9010E940F0741E084
:100A30000E9423028DE591E00E94210287E991E066
:100A40000E94210287EA91E00E9421024AE0C70148
:100A5000B601F7FE0EC06DE281EC91E00E946301E9
:100A60006CE97FEF8FEF9FEF681979098A099B097D
:100A70004AE00E94DD0183EB91E00E94210283EBBA
:100A800091E00E94210283EB91E00E94D00185EB6E
:100A900091E00E94D0010E949E004B015C0188EE13
:100AA000C82E83E0D82EE12CF12C0E949E006819FC
:100AB00079098A099B09683E734081059105A8F36D
:100AC00081E0C81AD108E108F10898EE890E93E098
:100AD000991EA11CB11CC114D104E104F10429F731
:100AE00080E090E0892B09F4B4CE0E942D01882388
:100AF00009F4AFCE0E940000ACCEE1ECF1E013822D
:100B0000128288EE93E0A0E0B0E084839583A68310
:100B1000B78384E091E09183808385EC90E09587B2
:100B2000848784EC90E09787868780EC90E0918BB7
:100B3000808B81EC90E0938B828B82EC90E0958BA4
:100B4000848B86EC90E0978B868B118E128E138EA1
:100B5000148E0895052E97FB1EF400940E94C10583
:100B600057FD07D00E94C90507FC03D04EF40C9432
:100B7000C10550954095309521953F4F4F4F5F4FA0
:100B8000089590958095709561957F4F8F4F9F4FF9
:100B90000895A1E21A2EAA1BBB1BFD010DC0AA1FBE
:100BA000BB1FEE1FFF1FA217B307E407F50720F0D6
:100BB000A21BB30BE40BF50B661F771F881F991F51
:100BC0001A9469F760957095809590959B01AC019A
:100BD000BD01CF010895A29FB001B39FC001A39FA3
:100BE000700D811D1124911DB29F700D811D112466
:100BF000911D08955058BB27AA270E9412060C94F5
:100C000085070E94770738F00E947E0720F039F4AC
:100C10009F3F19F426F40C9474070EF4E095E7FB5B
:100C20000C946E07E92F0E94960758F3BA176207D3
:100C300073078407950720F079F4A6F50C94B8079C
:100C40000EF4E0950B2EBA2FA02D0B01B9019001E7
:100C50000C01CA01A0011124FF27591B99F0593F2B
:100C600050F4503E68F11A16F040A22F232F342F73
:100C70004427585FF3CF469537952795A795F040C1
:100C80005395C9F77EF41F16BA0B620B730B840BD6
:100C9000BAF09150A1F0FF0FBB1F661F771F881F8E
:100CA000C2F70EC0BA0F621F731F841F48F48795E6
:100CB00077956795B795F7959E3F08F0B0CF9395D8
:100CC000880F08F09927EE0F9795879508950E9451
:100CD0004A0708F481E008950E9480060C94850775
:100CE0000E947E0758F00E94770740F029F45F3F8A
:100CF00029F00C946E0751110C94B9070C947407E9
:100D00000E94960768F39923B1F3552391F3951B3D
:100D1000550BBB27AA2762177307840738F09F5F1C
:100D20005F4F220F331F441FAA1FA9F335D00E2E89
:100D30003AF0E0E832D091505040E695001CCAF7F6
:100D40002BD0FE2F29D0660F771F881FBB1F2617B9
:100D500037074807AB07B0E809F0BB0B802DBF0190
:100D6000FF2793585F4F3AF09E3F510578F00C945F
:100D70006E070C94B9075F3FE4F3983ED4F3869571
:100D800077956795B795F7959F5FC9F7880F911D80
:100D90009695879597F90895E1E0660F771F881F6C
:100DA000BB1F621773078407BA0720F0621B730B1F
:100DB000840BBA0BEE1F88F7E09508950E949E07FA
:100DC00088F09F5798F0B92F9927B751B0F0E1F00C
:100DD000660F771F881F991F1AF0BA95C9F714C0BC
:100DE000B13091F00E94B807B1E008950C94B807B3
:100DF000672F782F8827B85F39F0B93FCCF38695F5
:100E000077956795B395D9F73EF490958095709551
:100E100061957F4F8F4F9F4F0895E89409C097FBCE
:100E20003EF490958095709561957F4F8F4F9F4FC1
:100E30009923A9F0F92F96E9BB279395F695879505
:100E400077956795B795F111F8CFFAF4BB0F11F4C8
:100E500060FF1BC06F5F7F4F8F4F9F4F16C088236F
:100E600011F096E911C0772321F09EE8872F762FA5
:100E700005C0662371F096E8862F70E060E02AF0E6
:100E80009A95660F771F881FDAF7880F96958795D2
:100E900097F90895990F0008550FAA0BE0E8FEEFA7
:100EA00016161706E807F907C0F012161306E4072E
:100EB000F50798F0621B730B840B950B39F40A2627
:100EC00061F0232B242B252B21F408950A2609F405
:100ED000A140A6958FEF811D811D089597F99F6709
:100EE00080E870E060E008959FEF80EC08950024B2
:100EF0000A941616170618060906089500240A947F
:100F000012161306140605060895092E0394000C04
:100F100011F4882352F0BB0F40F4BF2B11F460FF93
:100F200004C06F5F7F4F8F4F9F4F089557FD9058BC
:100F3000440F551F59F05F3F71F04795880F97FB9D
:100F4000991F61F09F3F79F0879508951216130657
:100F50001406551FF2CF4695F1DF08C01616170686
:100F60001806991FF1CF86957105610508940895BB
:100F7000E894BB2766277727CB0197F908950E944D
:100F80004A0708F48FEF089516F00C9486080C9425
:100F9000740768940C946E070E949E07A8F3992327
:100FA000C1F3AEF3DF93CF931F930F93FF92C92F3B
:100FB000DD2788232AF02197660F771F881FDAF72D
:100FC00020E030E040E85FEB9FE3883920F0803E8E
:100FD00038F021968F770E94FB05E8E6F0E004C028
:100FE0000E94FB05E5E9F0E00E9494088B01BE0138
:100FF000EC01FB2E6F5771097595771F880B990BC4
:101000000E940F0728E132E741E35FE30E942708CF
:10101000AF2D9801AE01FF900F911F91CF91DF91FD
:101020000E9412060C9485070E9427080C948507DD
:101030000E94770738F00E947E0720F0952311F078
:101040000C946E070C94740711240C94B9070E9439
:10105000960770F3959FC1F3950F50E0551F629F5F
:10106000F001729FBB27F00DB11D639FAA27F00D01
:10107000B11DAA1F649F6627B00DA11D661F829F28
:101080002227B00DA11D621F739FB00DA11D621F0D
:10109000839FA00D611D221F749F3327A00D611D2A
:1010A000231F849F600D211D822F762F6A2F11240C
:1010B0009F5750409AF0F1F088234AF0EE0FFF1F3F
:1010C000BB1F661F771F881F91505040A9F79E3F96
:1010D000510580F00C946E070C94B9075F3FE4F360
:1010E000983ED4F3869577956795B795F795E795EC
:1010F0009F5FC1F7FE2B880F911D9695879597F9F5
:1011000008950E944A07880B990B08959F3F31F07C
:10111000915020F4879577956795B795880F911D25
:101120009695879597F90895DF93CF931F930F9323
:10113000FF92EF92DF927B018C01689406C0DA2E59
:10114000EF010E942708FE01E894A59125913591B1
:1011500045915591A6F3EF010E941206FE019701F9
:10116000A801DA9469F7DF90EF90FF900F911F913B
:10117000CF91DF9108950E94EB05332312F48A1B6F
:101180009B0B0C94C5080E94EB05B7FF0895821BCA
:10119000930B0895EE0FFF1F0590F491E02D099435
:1011A000F894FFCF000000006301C300F000B0011D
:1011B0002101FF0013016E616E00696E66006F769B
:1011C00066002274696D657374616D70223A002C3B
:1011D0002273656E736F7273223A7B0022736F699C
:1011E0006C223A7B00226D6F697374757265223AC6
:1011F000002C2274656D7065726174757265223A97
:10120000007D2C00226E75747269656E7473223ACB
:101210007B00226E6974726F67656E223A002C2221
:1012200070686F7370686F727573223A002C227049
:101230006F7461737369756D223A0022656E766909
:10124000726F6E6D656E74223A7B002273756E6CE0
:0C12500069676874223A007D000D0A00F6
:107E0000112484B714BE81FFF0D085E080938100F7
:107E100082E08093C00088E18093C10086E0809377
:107E2000C20080E18093C4008EE0C9D0259A86E02C
:107E300020E33CEF91E0309385002093840096BBD3
:107E4000B09BFECF1D9AA8958150A9F7CC24DD24C4
:107E500088248394B5E0AB2EA1E19A2EF3E0BF2EE7
:107E6000A2D0813461F49FD0082FAFD0023811F036
:107E7000013811F484E001C083E08DD089C08234E0
:107E800011F484E103C0853419F485E0A6D080C0E4
:107E9000853579F488D0E82EFF2485D0082F10E0AE
:107EA000102F00270E291F29000F111F8ED06801E7
:107EB0006FC0863521F484E090D080E0DECF843638
:107EC00009F040C070D06FD0082F6DD080E0C81688
:107ED00080E7D80618F4F601B7BEE895C0E0D1E017
:107EE00062D089930C17E1F7F0E0CF16F0E7DF06D8
:107EF00018F0F601B7BEE89568D007B600FCFDCFD4
:107F0000A601A0E0B1E02C9130E011968C91119780
:107F100090E0982F8827822B932B1296FA010C0160
:107F200087BEE89511244E5F5F4FF1E0A038BF0790
:107F300051F7F601A7BEE89507B600FCFDCF97BE46
:107F4000E89526C08437B1F42ED02DD0F82E2BD052
:107F50003CD0F601EF2C8F010F5F1F4F84911BD097
:107F6000EA94F801C1F70894C11CD11CFA94CF0C13
:107F7000D11C0EC0853739F428D08EE10CD085E9AC
:107F80000AD08FE07ACF813511F488E018D01DD067
:107F900080E101D065CF982F8091C00085FFFCCF94
:107FA0009093C60008958091C00087FFFCCF809118
:107FB000C00084FD01C0A8958091C6000895E0E648
:107FC000F0E098E1908380830895EDDF803219F02E
:107FD00088E0F5DFFFCF84E1DECF1F93182FE3DFCA
:107FE0001150E9F7F2DF1F91089580E0E8DFEE27F6
:047FF000FF270994CA
:027FFE00040479
:00000001FF
