:020000040000FA
:100000000C9435000C945D000C945D000C945D0024
:100010000C945D000C945D000C945D000C945D00EC
:100020000C945D000C945D000C945D000C945D00DC
:100030000C945D000C945D000C945D000C945D00CC
:100040000C94D0020C945D000C9440030C941A03A1
:100050000C945D000C945D000C945D000C945D00AC
:100060000C945D000C945D00AD0411241FBECFEF15
:10007000D8E0DEBFCDBF11E0A0E0B1E0EAEFFEE0E6
:1000800002C005900D92AA38B107D9F722E0AAE87C
:10009000B1E001C01D92A033B207E1F710E0C5E363
:1000A000D0E004C02197FE010E947507C433D10738
:1000B000C9F70E9472030C947B070C9400008E50C9
:1000C000806480937C0080917A00806480937A00C1
:1000D00080917A0086FDFCCF809178009091790024
:1000E00008953FB7F89480918F0190919001A0916D
:1000F0009101B091920126B5A89B05C02F3F19F040
:100100000196A11DB11D3FBFBA2FA92F982F882797
:10011000BC01CD01620F711D811D911D42E0660F72
:10012000771F881F991F4A95D1F70895AF92BF9204
:10013000CF92DF92EF92FF920F931F93CF93DF93B3
:100140006C017B018B01040F151FEB015E01AE18E2
:10015000BF08C017D10759F06991D601ED91FC9104
:100160000190F081E02DC6010995892B79F7C50131
:10017000DF91CF911F910F91FF90EF90DF90CF9083
:10018000BF90AF900895FC01538D448D252F30E032
:10019000842F90E0821B930B541710F0CF96089594
:1001A00001970895FC01918D828D981761F0A28DC1
:1001B000AE0FBF2FB11D5D968C91928D9F5F9F7387
:1001C000928F90E008958FEF9FEF0895FC01918D3D
:1001D000828D981731F0828DE80FF11D858D90E0AA
:1001E00008958FEF9FEF0895FC01918D228D892F47
:1001F00090E0805C9F4F821B91098F73992708952F
:1002000083E991E00E94F40021E0892B09F420E0C9
:10021000822F089580E090E0892B29F00E94000150
:1002200081110C9400000895FC01A48DA80FB92F32
:10023000B11DA35ABF4F2C91848D90E001968F730E
:100240009927848FA689B7892C93A089B1898C912D
:10025000837080648C93938D848D981306C002887C
:10026000F389E02D80818F7D80830895EF92FF9246
:100270000F931F93CF93DF93EC0181E0888F9B8DC9
:100280008C8D98131AC0E889F989808185FF15C083
:100290009FB7F894EE89FF896083E889F9898081A6
:1002A0008370806480839FBF81E090E0DF91CF9175
:1002B0001F910F91FF90EF900895F62E0B8D10E097
:1002C0000F5F1F4F0F731127E02E8C8D8E110CC006
:1002D0000FB607FCFACFE889F989808185FFF5CF51
:1002E000CE010E941401F1CFEB8DEC0FFD2FF11D1B
:1002F000E35AFF4FF0829FB7F8940B8FEA89FB898E
:1003000080818062CFCFCF93DF93EC01888D8823EB
:10031000B9F0AA89BB89E889F9898C9185FD03C068
:10032000808186FD0DC00FB607FCF7CF8C9185FF4D
:10033000F2CF808185FFEDCFCE010E941401E9CF7D
:10034000DF91CF910895FC0101900020E9F73197EA
:10035000AF01481B590BBC0183E991E00C94960056
:100360008F929F92AF92BF920F931F93CF93DF9381
:10037000CDB7DEB7A1970FB6F894DEBF0FBECDBFE5
:1003800019A2423008F44AE08E010F5D1F4F842EFF
:10039000912CB12CA12CA50194010E94F904E62F07
:1003A000B901CA01EA30F4F4E05DD801EE938D01A1
:1003B000232B242B252B79F790E080E0109719F060
:1003C000CD010E94A301A1960FB6F894DEBF0FBE27
:1003D000CDBFDF91CF911F910F91BF90AF909F90B4
:1003E0008F900895E95CE1CF4F925F926F927F9278
:1003F0008F929F92AF92BF92CF92DF92EF92FF9235
:100400000F931F93CF936B017C01742EAC019B0162
:100410000E946107882399F082E191E0CF911F91BA
:100420000F91FF90EF90DF90CF90BF90AF909F9093
:100430008F907F906F905F904F900C94A301460136
:100440005701E894B7F82FEF3FEF4FE75FE7C5019B
:10045000B4010E94610781110DC02FEF3FEF4FE7FC
:100460005FE7C501B4010E94970518161CF486E1E8
:1004700091E0D4CF2FEF3FEF4FE75FE4C701B60124
:100480000E94EF0618161CF48AE191E0C7CF2FEF07
:100490003FEF4FE75FECC701B6010E94970587FD6C
:1004A000F3CF20E030E0A901C701B6010E94970513
:1004B00010E000E087FF0AC06DE283E991E00E944E
:1004C00036018C01F7FAF094F7F8F094C0E060E0A0
:1004D00070E080E09FE37C1641F020E030E040E2F5
:1004E00051E40E949C05CF5FF6CFA70196010E94C0
:1004F0002B052B013C010E940E064B015C014AE0DA
:100500000E94B0017C01E00EF11ECC23C1F1C501B7
:10051000B4010E943D069B01AC01C301B2010E94DF
:100520002A054B015C016EE283E991E00E943601ED
:10053000E80EF91EC15018F120E030E040E251E42D
:10054000C501B4010E94F4062B013C010E940E0675
:100550004B01B12CA12C4AE0C501B4010E94B001AD
:10056000E80EF91EC501B4010E943D069B01AC01D5
:10057000C301B2010E942A054B015C01DBCFC70118
:10058000CF911F910F91FF90EF90DF90CF90BF9090
:10059000AF909F908F907F906F905F904F90089555
:1005A0001F920F920FB60F9211242F933F938F93A8
:1005B0009F93AF93BF9380918B0190918C01A091F9
:1005C0008D01B0918E0130918A0123E0230F2D37E8
:1005D00058F50196A11DB11D20938A0180938B01CE
:1005E00090938C01A0938D01B0938E0180918F0127
:1005F00090919001A0919101B09192010196A11D5D
:10060000B11D80938F0190939001A0939101B093BD
:100610009201BF91AF919F918F913F912F910F9038
:100620000FBE0F901F90189526E8230F0296A11D6C
:10063000B11DD2CF1F920F920FB60F9211242F939C
:100640003F934F935F936F937F938F939F93AF935A
:10065000BF93EF93FF9383E991E00E941401FF9110
:10066000EF91BF91AF919F918F917F916F915F912A
:100670004F913F912F910F900FBE0F901F901895A3
:100680001F920F920FB60F9211242F938F939F9367
:10069000EF93FF93E091A301F091A4018081E09199
:1006A000A901F091AA0182FD1BC090818091AC014B
:1006B0008F5F8F732091AD01821741F0E091AC0103
:1006C000F0E0ED56FE4F958F8093AC01FF91EF91D6
:1006D0009F918F912F910F900FBE0F901F901895A3
:1006E0008081F4CF789484B5826084BD84B58160C4
:1006F00084BD85B5826085BD85B5816085BD8091ED
:100700006E00816080936E00109281008091810064
:10071000826080938100809181008160809381005C
:10072000809180008160809380008091B10084601E
:100730008093B1008091B00081608093B00080917F
:100740007A00846080937A0080917A00826080933E
:100750007A0080917A00816080937A0080917A009B
:10076000806880937A001092C100E091A301F0911B
:10077000A40182E08083E0919F01F091A0011082AA
:10078000E091A101F091A2018FEC80831092AB0166
:10079000E091A701F091A80186E08083E091A50196
:1007A000F091A601808180618083E091A501F091A4
:1007B000A601808188608083E091A501F091A60167
:1007C000808180688083E091A501F091A6018081FD
:1007D0008F7D808344244A9493E0592E612C712CA0
:1007E00020E0222E20E0322E8EE00E945F008C015D
:1007F0008FE00E945F00EC0180E10E945F005C01DD
:1008000081E10E945F006C0182E10E945F007C0137
:100810008EE191E00E94A30180E291E00E94A30199
:1008200024E630E0D5010E946E07A30192010E94E8
:10083000DA04CA01B9010E943F0642E00E94F401B5
:1008400081E391E00E94A30124E630E0D6010E94FA
:100850006E07A30192010E94DA04CA01B9010E9445
:100860003F0642E00E94F40185E491E00E94A3016A
:1008700024E630E0D7010E946E07A30192010E9496
:10088000DA04CA01B9010E943F0642E00E94F40165
:1008900088E591E00E94A30124E630E0D8010E949F
:1008A0006E07A30192010E94DA04CA01B9010E94F5
:1008B0003F0642E00E94F4018DE691E00E94A30110
:1008C0009E01ACE9BFEF0E946607A30192010E945E
:1008D000DA04CA01B9016C597F4F8F4F9F4F0E94B4
:1008E0003F0642E00E94F40185E891E00E94A301E6
:1008F00087E891E00E94A3010E9471004B015C0116
:1009000088EBC82E8BE0D82EE12CF12C0E947100D0
:10091000681979098A099B09683E73408105910528
:10092000A8F321E0C21AD108E108F10888EE880E88
:1009300083E0981EA11CB11CC114D104E104F10490
:1009400029F72114310409F44FCF0E9400018823B4
:1009500009F44ACF0E94000047CFE3E9F1E0138297
:10096000128288EE93E0A0E0B0E084839583A683B2
:10097000B78384E091E09183808385EC90E0958754
:10098000848784EC90E09787868780EC90E0918B59
:10099000808B81EC90E0938B828B82EC90E0958B46
:1009A000848B86EC90E0978B868B118E128E138E43
:1009B000148E0895052E97FB1EF400940E94F104F6
:1009C00057FD07D00E94F90407FC03D04EF40C94A5
:1009D000F10450954095309521953F4F4F4F5F4F13
:1009E000089590958095709561957F4F8F4F9F4F9B
:1009F0000895A1E21A2EAA1BBB1BFD010DC0AA1F60
:100A0000BB1FEE1FFF1FA217B307E407F50720F077
:100A1000A21BB30BE40BF50B661F771F881F991FF2
:100A20001A9469F760957095809590959B01AC013B
:100A3000BD01CF010895A29FB001B39FC001A39F44
:100A4000700D811D1124911DB29F700D811D112407
:100A5000911D08955058BB27AA270E9442050C9467
:100A6000B5060E94A70638F00E94AE0620F039F4C1
:100A70009F3F19F426F40C94A4060EF4E095E7FBCE
:100A80000C949E06E92F0E94C60658F3BA17620717
:100A900073078407950720F079F4A6F50C94E8060F
:100AA0000EF4E0950B2EBA2FA02D0B01B901900189
:100AB0000C01CA01A0011124FF27591B99F0593FCD
:100AC00050F4503E68F11A16F040A22F232F342F15
:100AD0004427585FF3CF469537952795A795F04063
:100AE0005395C9F77EF41F16BA0B620B730B840B78
:100AF000BAF09150A1F0FF0FBB1F661F771F881F30
:100B0000C2F70EC0BA0F621F731F841F48F4879587
:100B100077956795B795F7959E3F08F0B0CF939579
:100B2000880F08F09927EE0F9795879508950E94F2
:100B30007A0608F481E008950E94B0050C94B50689
:100B40000E94AE0658F00E94A70640F029F45F3FCD
:100B500029F00C949E0651110C94E9060C94A406FD
:100B60000E94C60668F39923B1F3552391F3951BB0
:100B7000550BBB27AA2762177307840738F09F5FBE
:100B80005F4F220F331F441FAA1FA9F335D00E2E2B
:100B90003AF0E0E832D091505040E695001CCAF798
:100BA0002BD0FE2F29D0660F771F881FBB1F26175B
:100BB00037074807AB07B0E809F0BB0B802DBF0132
:100BC000FF2793585F4F3AF09E3F510578F00C9401
:100BD0009E060C94E9065F3FE4F3983ED4F38695B5
:100BE00077956795B795F7959F5FC9F7880F911D22
:100BF0009695879597F90895E1E0660F771F881F0E
:100C0000BB1F621773078407BA0720F0621B730BC0
:100C1000840BBA0BEE1F88F7E09508950E94CE066C
:100C200088F09F5798F0B92F9927B751B0F0E1F0AD
:100C3000660F771F881F991F1AF0BA95C9F714C05D
:100C4000B13091F00E94E806B1E008950C94E806F6
:100C5000672F782F8827B85F39F0B93FCCF3869596
:100C600077956795B395D9F73EF4909580957095F3
:100C700061957F4F8F4F9F4F0895E89409C097FB70
:100C80003EF490958095709561957F4F8F4F9F4F63
:100C90009923A9F0F92F96E9BB279395F6958795A7
:100CA00077956795B795F111F8CFFAF4BB0F11F46A
:100CB00060FF1BC06F5F7F4F8F4F9F4F16C0882311
:100CC00011F096E911C0772321F09EE8872F762F47
:100CD00005C0662371F096E8862F70E060E02AF088
:100CE0009A95660F771F881FDAF7880F9695879574
:100CF00097F90895990F0008550FAA0BE0E8FEEF49
:100D000016161706E807F907C0F012161306E407CF
:100D1000F50798F0621B730B840B950B39F40A26C8
:100D200061F0232B242B252B21F408950A2609F4A6
:100D3000A140A6958FEF811D811D089597F99F67AA
:100D400080E870E060E008959FEF80EC0895002453
:100D50000A941616170618060906089500240A9420
:100D600012161306140605060895092E0394000CA6
:100D700011F4882352F0BB0F40F4BF2B11F460FF35
:100D800004C06F5F7F4F8F4F9F4F089557FD90585E
:100D9000440F551F59F05F3F71F04795880F97FB3F
:100DA000991F61F09F3F79F08795089512161306F9
:100DB0001406551FF2CF4695F1DF08C01616170628
:100DC0001806991FF1CF869571056105089408955D
:100DD000E894BB2766277727CB0197F908950E94EF
:100DE0007A0608F48FEF08950E9407070C94B50661
:100DF0000E94A70638F00E94AE0620F0952311F05D
:100E00000C949E060C94A40611240C94E9060E94EE
:100E1000C60670F3959FC1F3950F50E0551F629F72
:100E2000F001729FBB27F00DB11D639FAA27F00D43
:100E3000B11DAA1F649F6627B00DA11D661F829F6A
:100E40002227B00DA11D621F739FB00DA11D621F4F
:100E5000839FA00D611D221F749F3327A00D611D6C
:100E6000231F849F600D211D822F762F6A2F11244E
:100E70009F5750409AF0F1F088234AF0EE0FFF1F81
:100E8000BB1F661F771F881F91505040A9F79E3FD8
:100E9000510580F00C949E060C94E9065F3FE4F344
:100EA000983ED4F3869577956795B795F795E7952E
:100EB0009F5FC1F7FE2B880F911D9695879597F937
:100EC00008950E947A06880B990B08950E941B05CD
:100ED000332312F48A1B9B0B0C9470070E941B0592
:100EE000B7FF0895821B930B0895EE0FFF1F059027
:100EF000F491E02D0994F894FFCF00000000360132
:100F00009600C3008301F400D200E6006E616E001B
:100F1000696E66006F7666007B00226E6974726F80
:100F200067656E5F6D676B67223A002C2270686F91
:100F30007370686F7275735F6D676B67223A002C10
:100F400022706F7461737369756D5F6D676B672273
:100F50003A002C226D6F6973747572655F706572EB
:100F600063656E74223A002C2274656D706572613F
:100F7000747572655F63656C73697573223A007D81
:040F8000000D0A0056
:107E0000112484B714BE81FFF0D085E080938100F7
:107E100082E08093C00088E18093C10086E0809377
:107E2000C20080E18093C4008EE0C9D0259A86E02C
:107E300020E33CEF91E0309385002093840096BBD3
:107E4000B09BFECF1D9AA8958150A9F7CC24DD24C4
:107E500088248394B5E0AB2EA1E19A2EF3E0BF2EE7
:107E6000A2D0813461F49FD0082FAFD0023811F036
:107E7000013811F484E001C083E08DD089C08234E0
:107E800011F484E103C0853419F485E0A6D080C0E4
:107E9000853579F488D0E82EFF2485D0082F10E0AE
:107EA000102F00270E291F29000F111F8ED06801E7
:107EB0006FC0863521F484E090D080E0DECF843638
:107EC00009F040C070D06FD0082F6DD080E0C81688
:107ED00080E7D80618F4F601B7BEE895C0E0D1E017
:107EE00062D089930C17E1F7F0E0CF16F0E7DF06D8
:107EF00018F0F601B7BEE89568D007B600FCFDCFD4
:107F0000A601A0E0B1E02C9130E011968C91119780
:107F100090E0982F8827822B932B1296FA010C0160
:107F200087BEE89511244E5F5F4FF1E0A038BF0790
:107F300051F7F601A7BEE89507B600FCFDCF97BE46
:107F4000E89526C08437B1F42ED02DD0F82E2BD052
:107F50003CD0F601EF2C8F010F5F1F4F84911BD097
:107F6000EA94F801C1F70894C11CD11CFA94CF0C13
:107F7000D11C0EC0853739F428D08EE10CD085E9AC
:107F80000AD08FE07ACF813511F488E018D01DD067
:107F900080E101D065CF982F8091C00085FFFCCF94
:107FA0009093C60008958091C00087FFFCCF809118
:107FB000C00084FD01C0A8958091C6000895E0E648
:107FC000F0E098E1908380830895EDDF803219F02E
:107FD00088E0F5DFFFCF84E1DECF1F93182FE3DFCA
:107FE0001150E9F7F2DF1F91089580E0E8DFEE27F6
:047FF000FF270994CA
:027FFE00040479
:00000001FF
